:1000000012C02CC02BC02AC029C028C027C026C0BF
:1000100025C024C023C022C021C020C01FC01EC0D4
:100020001DC037C01BC011241FBECFE5D4E0DEBF0A
:10003000CDBF10E0A0E6B0E0EAEAF0E002C0059033
:100040000D92A036B107D9F720E0A0E6B0E001C0DC
:100050001D92A436B207E1F70AD025C0D1CFE199AD
:10006000FECF9FBB8EBB6DBBE29AE19A08958FEFE6
:1000700087BB789484E190E00197F1F784E190E008
:10008000909361008093600063E082E090E0E7DF9E
:10009000FBCF1F920F920FB60F9211240F900FBE3D
:0A00A0000F901F901895F894FFCF01
:00000001FF
